:100000000C9419020C94BF090C94F0090C94210A69
:100010000C94520A0C94830A0C94B40A0C94E50ACA
:100020000C94160B0C9446020C9446020C94DC11B2
:100030000C9446020C945F090C9446020C94460200
:100040000C9446020C9446020C9446020C94460210
:100050000C9446020C9446020C9446020C94470BF6
:100060000C9446020C9449020C9495030C9446029D
:100070000C9446020C9446020C9446020C944602E0
:100080000C9446020C9446020C9446020C944602D0
:100090000C9489020C94D4030C9446020C94890F9E
:1000A0000C9446020C9446020C9446020C944602B0
:1000B0000C9446020C9446020C9446020C944602A0
:1000C0000C9446020C9446020C9446020C94C9020D
:1000D0000C9413040C9446020C9409030C945204DF
:1000E0000C9446024210DB0FDB0FDB0FDB0FDB0F44
:1000F000DB0FDB0F4C10DB0FDB0FDB0FDB0FDB0F3E
:10010000DB0FDB0F4C10DB0FDB0FDB0FDB0FDB0F2D
:10011000DB0FDB0F5410DB0FDB0FDB0FDB0FDB0F15
:10012000DB0FDB0F6810DB0FDB0FDB0FDB0FDB0FF1
:10013000DB0FDB0F5410DB0FDB0FDB0FDB0FDB0FF5
:10014000DB0FDB0F0A10DB0FDB0FDB0FDB0FDB0F2F
:10015000DB0FDB0F1710DB0FDB0FDB0FDB0FDB0F12
:10016000DB0FDB0F0310DB0FDB0FDB0FDB0FDB0F16
:10017000DB0FDB0F9810DB0FDB0FDB0FDB0FDB0F71
:10018000DB0FDB0FF70FDB0FDB0FDB0FDB0FDB0F03
:10019000DB0FDB0F2010DB0FDB0FDB0FDB0FDB0FC9
:1001A000DB0FDB0F3910DB0FDB0FDB0FDB0FDB0FA0
:1001B000DB0FDB0F3910DB0FDB0FDB0FDB0FDB0F90
:1001C000DB0FDB0F3910DB0FDB0FDB0FDB0FDB0F80
:1001D000DB0FDB0F3910DB0FDB0FDB0FDB0FDB0F70
:1001E000DB0FDB0FEE0FDB0FDB0FDB0FDB0FDB0FAC
:1001F000DB0FDB0FF30FDB0FDB0FDB0FDB0FDB0F97
:10020000DB0FDB0FEE0FDB0FDB0FDB0FDB0FDB0F8B
:10021000DB0FDB0FF30FDB0FDB0FDB0FDB0FDB0F76
:10022000DB0FDB0F7310DB0FDB0FDB0FDB0FDB0FE5
:10023000DB0FDB0FB10FDB0FDB0FDB0FDB0FDB0F98
:10024000DB0FDB0FB10FDB0FDB0FDB0FDB0FDB0F88
:10025000DB0FDB0FC60FDB0FDB0FDB0FDB0FDB0F63
:10026000DB0FDB0F9210DB0FDB0FDB0FDB0FDB0F86
:10027000DB0FDB0F92100200002100240027002A70
:10028000002D003000330001010000040107010AC5
:100290000100002200250028002B002E0031003430
:1002A0000002010000050108010B010000200023ED
:1002B00000260029002C002F00320000010000035E
:1002C00001060109010505050507050808080802DA
:1002D0000202020A0A0808040404040101010101DF
:1002E0000101010303030303030303040707070CCE
:1002F0000C0C0C0C0C0C0C02020202060606060684
:100300000606060B0B0B0B0B0B0B0B010210202030
:100310000808102040102040800201020108040259
:1003200001010204081020408080402010080402CF
:100330000180040201804020100804020108040228
:10034000010102040810204080010204081020402E
:10035000800000090A02080B0C0D070603040100C7
:10036000000000000000000000000000000000008D
:100370000000000000000000000000000011100F4D
:10038000000000000000000000000000000000006D
:10039000000000000000002C206572726F72203D8A
:1003A00020005057525F4D474D545F32203A200095
:1003B0002C206572726F72203D200057484F5F41BC
:1003C0004D5F49203A2000005468726F74746C6568
:1003D0003A2000002C20002C20002C20006779728D
:1003E0006F20782C792C7A203A20000020646567F1
:1003F000726565732043656C736975730074656D10
:1004000070657261747572653A2000002C20002CB2
:100410002000616363656C20782C792C7A3A200087
:100420004D50552D363035300000C505FB06D01037
:10043000101111241FBECFEFD1E2DEBFCDBF00E00F
:100440000CBF12E0A0E0B2E0E4EEF9E200E00BBF86
:1004500002C007900D92A832B107D9F71BBE16E073
:10046000A8E2B2E001C01D92AD33B107E1F714E09C
:10047000C2E3D4E004C02297FE010E94EC14CA3209
:10048000D107C9F70E944C070C94F0140C9400009B
:1004900008951F920F920FB60F920BB60F92112470
:1004A0002F933F934F938F939F93EF93FF9380915D
:1004B000C00082FD2AC04091C600209168023091A0
:1004C00069022F5F3F4F2F73307080916A029091C5
:1004D0006B022817390759F0E0916802F091690220
:1004E000E85DFD4F40833093690220936802FF91DD
:1004F000EF919F918F914F913F912F910F900BBE54
:100500000F900FBE0F901F9018958091C600EFCFEF
:1005100008951F920F920FB60F920BB60F921124EF
:100520002F933F934F938F939F93EF93FF938091DC
:10053000C80082FD2AC04091CE002091F002309187
:10054000F1022F5F3F4F2F7330708091F202909134
:10055000F3022817390759F0E091F002F091F10207
:10056000E055FD4F40833093F1022093F002FF915C
:10057000EF919F918F914F913F912F910F900BBED3
:100580000F900FBE0F901F9018958091CE00EFCF67
:1005900008951F920F920FB60F920BB60F9211246F
:1005A0002F933F934F938F939F93EF93FF9380915C
:1005B000D00082FD2AC04091D6002091780330916E
:1005C00079032F5F3F4F2F73307080917A039091A2
:1005D0007B032817390759F0E0917803F0917903EC
:1005E000E85CFC4F40833093790320937803FF91BC
:1005F000EF919F918F914F913F912F910F900BBE53
:100600000F900FBE0F901F9018958091D600EFCFDE
:1006100008951F920F920FB60F920BB60F921124EE
:100620002F933F934F938F939F93EF93FF938091DB
:10063000300182FD2AC040913601209100043091A2
:1006400001042F5F3F4F2F7330708091020490910F
:1006500003042817390759F0E0910004F0910104D0
:10066000E054FC4F40833093010420930004FF9139
:10067000EF919F918F914F913F912F910F900BBED2
:100680000F900FBE0F901F90189580913601EFCFFD
:10069000E0915404F0915504E05CFF4F81919191F9
:1006A00020813181821B930B8F739070892BD1F540
:1006B000E0917604F0917704E05CFF4F8191919195
:1006C00020813181821B930B8F739070892B39F5B8
:1006D000E0919804F0919904E05CFF4F8191919131
:1006E00020813181821B930B8F739070892BA1F431
:1006F000E091BA04F091BB04E05CFF4F81919191CD
:1007000020813181821B930B8F739070892B09F4A8
:1007100008950E94080308950E94C802E9CF0E942C
:100720008802D6CF0E944802C3CF1F920F920FB605
:100730000F920BB60F9211242F933F938F939F9399
:10074000EF93FF932091AC023091AD028091AE0205
:100750009091AF022817390709F1E091AE02F091AC
:10076000AF02E459FD4F20818091AE029091AF021B
:1007700001968F7390709093AF028093AE02209396
:10078000C600FF91EF919F918F913F912F910F9014
:100790000BBE0F900FBE0F901F9018958091C10057
:1007A0008F7D8093C100EDCF1F920F920FB60F92F5
:1007B0000BB60F9211242F933F938F939F93EF9338
:1007C000FF9320913403309135038091360390914B
:1007D00037032817390709F1E0913603F091370301
:1007E000EC50FD4F208180913603909137030196A4
:1007F0008F73907090933703809336032093CE00CD
:10080000FF91EF919F918F913F912F910F900BBE90
:100810000F900FBE0F901F9018958091C9008F7D8B
:100820008093C900EDCF1F920F920FB60F920BB6B7
:100830000F9211242F933F938F939F93EF93FF93E6
:100840002091BC033091BD038091BE039091BF0302
:100850002817390709F1E091BE03F091BF03E4586E
:10086000FC4F20818091BE039091BF0301968F734E
:1008700090709093BF038093BE032093D600FF91A6
:10088000EF919F918F913F912F910F900BBE0F9001
:100890000FBE0F901F9018958091D1008F7D80938F
:1008A000D100EDCF1F920F920FB60F920BB60F92A1
:1008B00011242F933F938F939F93EF93FF93209156
:1008C00044043091450480914604909147042817D0
:1008D000390709F1E0914604F0914704EC5FFB4FC2
:1008E0002081809146049091470401968F73907007
:1008F000909347048093460420933601FF91EF9133
:100900009F918F913F912F910F900BBE0F900FBE33
:100910000F901F901895809131018F7D8093310148
:10092000EDCFDF92EF92FF920F931F93CF93DF9360
:10093000EC017A018B01DD24403081EE580780E024
:10094000680780E0780721F1DD24D394EC89FD89E4
:1009500081E090E008A002C0880F991F0A94E2F796
:10096000808360E079E08DE390E0A80197010E9428
:10097000C814215030404040504056954795379517
:10098000279580E120303807D0F0DD20C1F0DD244C
:10099000EC89FD89108260E874E88EE190E0A8019E
:1009A00097010E94C8142150304040405040569555
:1009B00047953795279580E12030380730F7E8894B
:1009C000F9893083EA89FB89208319A2EE89FF899E
:1009D000408121E030E0C9010C8C02C0880F991FD2
:1009E0000A94E2F7482B4083EE89FF894081C901D0
:1009F0000D8C02C0880F991F0A94E2F7482B4083A0
:100A0000EE89FF894081C9010E8C02C0880F991FB1
:100A10000A94E2F7482B4083EE89FF8980810F8C8E
:100A200002C0220F331F0A94E2F720952823208367
:100A3000DF91CF911F910F91FF90EF90DF9008957C
:100A4000DC011C96ED91FC911D97E05CFF4F21911C
:100A5000319180819181281B390B2F733070C9012E
:100A60000895DC011C96ED91FC911D97E05CFF4F11
:100A700020813181E054F040DF01AE5BBF4F8D91AA
:100A80009C9111972817390749F08D919C91E80F97
:100A9000F91F8081282F30E0C90108952FEF3FEF23
:100AA000C9010895DC011C96ED91FC911D97E05C55
:100AB000FF4F20813181E054F040DF01AE5BBF4F3A
:100AC0008D919C9111972817390791F08D919C91E8
:100AD0001197E80FF91F20818D919C911197019634
:100AE0008F73907011969C938E9330E0C901089596
:100AF0002FEF3FEFC9010895FC0181A1882311F474
:100B000011A20895A489B5898C9186FFFDCF11A209
:100B10000895CF93DF93EC01AE85BF85AD01405CB6
:100B20005F4FFA01208131812F5F3F4F2F7330706B
:100B3000FD01EE5BFF4F8081918128173907D9F3C2
:100B4000FA0180819181A80FB91F6C93EE85FF8512
:100B5000E05CFF4F31832083EE89FF89208181E0B3
:100B600090E00F8C02C0880F991F0A94E2F7282B9F
:100B7000208381E089A3EC89FD8980818064808362
:100B800081E090E0DF91CF9108951F9310924B0484
:100B900010924A0428EE33E040E050E020934C04E9
:100BA00030934D0440934E0450934F0465E072E03F
:100BB000709349046093480488E292E0909355044E
:100BC000809354048CE692E09093570480935604EB
:100BD00085EC90E0909359048093580484EC90E065
:100BE00090935B0480935A0480EC90E090935D04B2
:100BF00080935C0481EC90E090935F0480935E04AA
:100C000082EC90E0909361048093600486EC90E025
:100C1000909363048093620414E010936404B3E03F
:100C2000B0936504A7E0A0936604F5E0F093670431
:100C3000E1E0E093680410926D0410926C0420933C
:100C40006E0430936F04409370045093710470935A
:100C50006B0460936A0480EB92E090937704809336
:100C6000760484EF92E090937904809378048DEC7D
:100C700090E090937B0480937A048CEC90E09093C6
:100C80007D0480937C0488EC90E090937F048093B3
:100C90007E0489EC90E090938104809380048AEC38
:100CA00090E090938304809382048EEC90E0909384
:100CB00085048093840410938604B0938704A093E2
:100CC0008804F0938904E0938A0410928F041092B0
:100CD0008E04209390043093910440939204509397
:100CE000930470938D0460938C0488E393E0909355
:100CF0009904809398048CE793E090939B048093ED
:100D00009A0485ED90E090939D0480939C0484ED7B
:100D100090E090939F0480939E0480ED90E09093E8
:100D2000A1048093A00481ED90E09093A3048093AC
:100D3000A20482ED90E09093A5048093A40486ED34
:100D400090E09093A7048093A6041093A804B09316
:100D5000A904A093AA04F093AB04E093AC0410920E
:100D6000B1041092B0042093B2043093B3044093C2
:100D7000B4045093B5047093AF046093AE0480EC58
:100D800093E09093BB048093BA0484E094E0909342
:100D9000BD048093BC0485E391E09093BF048093ED
:100DA000BE0484E391E09093C1048093C00480E387
:100DB00091E09093C3048093C20481E391E0909307
:100DC000C5048093C40482E391E09093C7048093A8
:100DD000C60486E391E09093C9048093C8041093FD
:100DE000CA04B093CB04A093CC04F093CD04E09359
:100DF000CE041F91089585E192E09093D1048093F1
:100E0000D0041092D2041092D3041092D404109201
:100E1000D50408958F929F92AF92BF92CF92DF92A6
:100E2000EF92FF920F931F93CF93DF934C016B01CF
:100E30007C01AA24BB24C0E0D0E0C601F701628196
:100E40004AE050E00E9486088C01C6016EE20E94D2
:100E5000B507080F191FA00EB11E21960894E11CBA
:100E6000F11CC330D10549F7C601F40165814AE0A0
:100E700050E00E9486089501280F391FC901DF91B3
:100E8000CF911F910F91FF90EF90DF90CF90BF9087
:100E9000AF909F908F9008950E94B60B0E94C3114F
:100EA0000E941D1188E493E0892B29F00E944803D9
:100EB0000E941D11FBCF0E941D110E941D11FBCF2E
:100EC000CF92DF92EF92FF920F931F93CF93DF9316
:100ED0007C016B01EA0141155105D9F000E010E0F9
:100EE000D6016D916D01D701ED91FC910190F081DA
:100EF000E02DC7011995080F191F219789F7C8011F
:100F0000DF91CF911F910F91FF90EF90DF90CF90E5
:100F1000089500E010E0F3CFEF92FF920F931F933C
:100F2000CF93DF937C01FB0164916623D9F0EF013D
:100F3000219600E010E0D701ED91FC910190F08145
:100F4000E02DC7011995080F191FFE012196649124
:100F5000662389F7C801DF91CF911F910F91FF9010
:100F6000EF90089500E010E0F5CFDC01ED91FC91E9
:100F70000190F081E02D19950895EF92FF920F9363
:100F80001F938C01DC01ED91FC910190F081E02D2B
:100F90006DE019957C01D801ED91FC910190F081F3
:100FA000E02DC8016AE019959C012E0D3F1DC90175
:100FB0001F910F91FF90EF900895EF92FF920F9382
:100FC0001F937C010E948C078C01C7010E94BD0702
:100FD0009C01200F311FC9011F910F91FF90EF90CD
:100FE00008954F925F927F928F929F92AF92BF929D
:100FF000CF92DF92EF92FF920F931F93DF93CF93E5
:10100000CDB7DEB7A1970FB6F894DEBF0FBECDBF48
:101010002C01742ECB01223008F460C0822E99245A
:10102000AA24BB2419A221E2C22ED12CCC0EDD1E93
:101030000BC0405DF6014083E114F1040105110588
:1010400001F17E2C5F2DC801672D752FA50194013C
:101050000E94C81479018A01C801B701A501940151
:101060000E94A914472D461B0894C108D1084A3094
:1010700004F3495CF6014083E114F1040105110514
:1010800001F7C114D10481F1D6010D900020E9F7D8
:101090001197AC19BD09F20180819181FC01228177
:1010A0003381C201B601AD01F90119959C01C90155
:1010B000A1960FB6F894DEBF0FBECDBFCF91DF91E2
:1010C0001F910F91FF90EF90DF90CF90BF90AF9066
:1010D0009F908F907F905F904F9008953AE0832E7D
:1010E000912CA12CB12C9ECF20E030E0E0CFDC0190
:1010F0002115310519F00E94F1070895ED91FC9139
:101100000190F081E02D642F19950895EF92FF92E0
:101110000F931F939A01E62EFF2400E010E0B80120
:10112000A7010E9477081F910F91FF90EF900895FB
:10113000CF92DF92EF92FF920F931F93CF93DF93A3
:10114000EC016A017B0121153105B9F02A30310526
:1011500039F477FD1BC02AE00E94F1079C0103C00F
:101160000E94F1079C01C901DF91CF911F910F915E
:10117000FF90EF90DF90CF900895E881F981019082
:10118000F081E02D642F19959C01EDCFE881F98164
:101190000190F081E02D6DE219958C0144275527CF
:1011A000BA014C195D096E097F09CE012AE00E943F
:1011B000F1079801280F391FD6CFEF92FF920F93B6
:1011C0001F937B019A010027F7FC0095102FB801AF
:1011D000A7010E9498081F910F91FF90EF9008952A
:1011E000CF92DF92EF92FF920F931F936C017B01DE
:1011F0009A010027F7FC0095102FB801A7010E9463
:1012000098088C01C6010E94BD07080F191FC8016C
:101210001F910F91FF90EF90DF90CF900895823053
:10122000E1F0833038F0843049F1843058F4109282
:1012300071000895882319F410926E00089581308A
:1012400031F008958530E9F7109273000895809188
:101250006F008D7F80936F000895809170008D7F67
:101260008093700081E08093B0008091B100887F0E
:1012700084608093B1001092B300089510927200C0
:1012800008951F93182F80910002811749F08FEF66
:101290000E940F09812F60E00E94B90D1F910895EF
:1012A000E6E7F2E0E4918FEF809300028E2F0E9438
:1012B0000F09812F60E00E94B90D1F9108951F92C0
:1012C0000F920FB60F920BB60F9211242F933F93EC
:1012D0004F935F936F937F938F939F93AF93BF933E
:1012E000EF93FF938091D6049091D704A091D804F6
:1012F000B091D9040097A105B105E1F1E091DA04BC
:10130000F091DB0480819091DC04892780838091B7
:10131000D6049091D704A091D804B091D90418169E
:1013200019061A061B069CF48091D6049091D704E6
:10133000A091D804B091D9040197A109B109809373
:10134000D6049093D704A093D804B093D904FF9106
:10135000EF91BF91AF919F918F917F916F915F912D
:101360004F913F912F910F900BBE0F900FBE0F909A
:101370001F901895809100020E944109E8CF1F92AA
:101380000F920FB60F920BB60F9211242F933F932B
:101390004F935F936F937F938F939F93AF93BF937D
:1013A000EF93FF938091E1049091E204892B29F05F
:1013B000E091E104F091E2041995FF91EF91BF9162
:1013C000AF919F918F917F916F915F914F913F91DD
:1013D0002F910F900BBE0F900FBE0F901F9018957E
:1013E0001F920F920FB60F920BB60F9211242F93EC
:1013F0003F934F935F936F937F938F939F93AF939D
:10140000BF93EF93FF938091E3049091E404892BC1
:1014100029F0E091E304F091E4041995FF91EF9134
:10142000BF91AF919F918F917F916F915F914F91FC
:101430003F912F910F900BBE0F900FBE0F901F90FA
:1014400018951F920F920FB60F920BB60F921124A0
:101450002F933F934F935F936F937F938F939F93BC
:10146000AF93BF93EF93FF938091E5049091E604CF
:10147000892B29F0E091E504F091E6041995FF919C
:10148000EF91BF91AF919F918F917F916F915F91FC
:101490004F913F912F910F900BBE0F900FBE0F9069
:1014A0001F9018951F920F920FB60F920BB60F92C6
:1014B00011242F933F934F935F936F937F938F9359
:1014C0009F93AF93BF93EF93FF938091E704909125
:1014D000E804892B29F0E091E704F091E8041995DC
:1014E000FF91EF91BF91AF919F918F917F916F91FC
:1014F0005F914F913F912F910F900BBE0F900FBEB8
:101500000F901F9018951F920F920FB60F920BB667
:101510000F9211242F933F934F935F936F937F9379
:101520008F939F93AF93BF93EF93FF938091DD04CD
:101530009091DE04892B29F0E091DD04F091DE0426
:101540001995FF91EF91BF91AF919F918F917F91ED
:101550006F915F914F913F912F910F900BBE0F9024
:101560000FBE0F901F9018951F920F920FB60F92FB
:101570000BB60F9211242F933F934F935F936F936A
:101580007F938F939F93AF93BF93EF93FF9380913C
:10159000DF049091E004892B29F0E091DF04F091C1
:1015A000E0041995FF91EF91BF91AF919F918F91B9
:1015B0007F916F915F914F913F912F910F900BBE53
:1015C0000F900FBE0F901F9018951F920F920FB69D
:1015D0000F920BB60F9211242F933F934F935F936B
:1015E0006F937F938F939F93AF93BF93EF93FF93EB
:1015F0008091E9049091EA04892B29F0E091E904B3
:10160000F091EA041995FF91EF91BF91AF919F91ED
:101610008F917F916F915F914F913F912F910F909B
:101620000BBE0F900FBE0F901F9018951F920F9238
:101630000FB60F920BB60F9211242F933F934F9337
:101640005F936F937F938F939F93AF93BF93EF932A
:10165000FF938091EB049091EC04892B29F0E091A9
:10166000EB04F091EC041995FF91EF91BF91AF91CC
:101670009F918F917F916F915F914F913F912F91AA
:101680000F900BBE0F900FBE0F901F9018951F92DA
:101690000F920FB60F9211242F933F938F939F9326
:1016A000AF93BF938091F1049091F204A091F30461
:1016B000B091F4043091F5040196A11DB11D232FC2
:1016C0002D5F2D3720F02D570196A11DB11D2093C0
:1016D000F5048093F1049093F204A093F304B09383
:1016E000F4048091ED049091EE04A091EF04B09188
:1016F000F0040196A11DB11D8093ED049093EE04BA
:10170000A093EF04B093F004BF91AF919F918F919C
:101710003F912F910F900FBE0F901F9018959FB77C
:10172000F8942091ED043091EE044091EF04509133
:10173000F00486B5A89B06C08F3F21F02F5F3F4F76
:101740004F4F5F4F9FBF542F432F322F2227280F19
:10175000311D411D511D220F331F441F551F220FE4
:10176000331F441F551FB901CA010895789484B5E9
:10177000826084BD84B5816084BD85B5826085BD8D
:1017800085B5816085BDEEE6F0E080818160808373
:10179000E1E8F0E010828081826080838081816056
:1017A0008083E0E8F0E0808181608083E1EBF0E01D
:1017B000808184608083E0EBF0E0808181608083C1
:1017C000E1E9F0E0808182608083808181608083B4
:1017D000E0E9F0E0808181608083E1EAF0E08081EF
:1017E00082608083808181608083E0EAF0E0808194
:1017F00081608083E1E2F1E080818260808380818A
:1018000081608083E0E2F1E0808181608083EAE7AB
:10181000F0E0808184608083808182608083808129
:10182000816080838081806880831092C1000895E8
:101830001F93CF93DF93182FEB0161E00E94F70C09
:10184000209761F1CF3FD10509F444C0E12FF0E0CA
:10185000EF5AFC4F8491893009F453C08A3030F537
:10186000843009F462C08530E8F5823009F4A1C003
:10187000833008F078C0813071F484B5806884BD0D
:10188000C7BD10C0803109F4A8C0813109F475C00A
:101890008F3009F47CC0C038D105E4F4812F60E0BA
:1018A0000E94B90DDF91CF911F9108958D3099F16C
:1018B0008E3040F78B3009F481C08C3008F43FC083
:1018C0008091A00080628093A000D093AB00C09371
:1018D000AA00E8CF812F61E00E94B90DDF91CF917E
:1018E0001F910895873009F45CC0883090F58630E8
:1018F00091F68091B00080688093B000C093B300EF
:10190000D1CF80919000806280939000D0939B0013
:10191000C0939A00C7CF8091A00088608093A000F8
:10192000D093AD00C093AC00BDCF809180008062A9
:1019300080938000D0938B00C0938A00B3CF8091B6
:101940009000886080939000D0939D00C0939C008D
:10195000A9CF80919000806880939000D0939900E7
:10196000C09398009FCF8091800080688093800012
:10197000D0938900C093880095CF80912001886022
:1019800080932001D0932D01C0932C018BCF8091A7
:101990002001806880932001D0932901C093280101
:1019A00081CF8091B00080628093B000C093B4007A
:1019B00079CF84B5806284BDC8BD74CF8091A0000A
:1019C00080688093A0008091A0008F7B8093A0000E
:1019D000D093A900C093A80065CF809120018062B8
:1019E00080932001D0932B01C0932A015BCFCF932A
:1019F000DF93482F50E0CA01855F9C4FFC01349172
:101A00004B535D4FFA0184918823B9F090E0880F21
:101A1000991FFC01E958FD4FA591B491FC01EF56C7
:101A2000FD4FC591D491662359F06230B9F09FB74C
:101A3000F8948C91832B8C939FBFDF91CF91089565
:101A40002FB7F8948C91932F909589238C9388814C
:101A5000892388832FBFDF91CF9108952FB7F89402
:101A60008C91932F909589238C938881832B8883E5
:101A70002FBFE3CF893009F45EC08A3070F08D301B
:101A800009F45FC08E30D0F0803109F46CC0813130
:101A900009F463C08F30C9F10895843009F445C05A
:101AA0008530B8F08730B9F1883048F58630A1F735
:101AB0008091B0008F778093B00008958B3009F447
:101AC00046C08C30B0F08091A0008F7D8093A00044
:101AD0000895823031F1833030F48130E9F684B5F5
:101AE0008F7784BD0895809180008F7780938000E8
:101AF000089580919000877F809390000895809151
:101B000090008F77809390000895809120018F77C7
:101B10008093200108958091B0008F7D8093B00064
:101B2000089584B58F7D84BD0895809180008F7D58
:101B3000809380000895809190008F7D8093900025
:101B400008958091A000877F8093A00008958091E0
:101B5000A0008F778093A000089580912001877F57
:101B6000809320010895809120018F7D8093200132
:101B70000895FF920F931F93F62E482F50E0CA014D
:101B80008F5A9C4FFC012491CA01855F9C4FFC0138
:101B900004914B535D4FFA011491112399F02223C4
:101BA000D1F4E12FF0E0EE0FFF1FEF56FD4FA591AE
:101BB000B4919FB7F894FF2049F48C91009580234D
:101BC0008C939FBF1F910F91FF9008958C91802B54
:101BD0008C939FBFF7CF822F0E943A0DE2CF81E016
:101BE00080933B05609318051092390510923A05D1
:101BF00008952091170530E080911605281B3109C2
:101C0000C90108954091160580911705481760F4A1
:101C1000E42FF0E0EA50FB4F8081282F30E04F5F47
:101C200040931605C90108952FEF3FEFC9010895AC
:101C3000E091160580911705E81740F4F0E0EA50AE
:101C4000FB4F8081E82FF0E0CF010895EFEFFFEF29
:101C5000CF0108950895382F4132E8F580916D0540
:101C60008823E1F791E090936D0520936B058FEF4A
:101C700080936E0510924905415040934A054F5F8D
:101C80009093480580914805330F832B8093480536
:101C900080916C05813011F185EE8093BC008091BC
:101CA0006D058130E1F380914905841710F440916E
:101CB0004905442371F020E030E0FB01E20FF31FFF
:101CC000D901A55BBA4F8C9180832F5F3F4F2417BA
:101CD000A0F3842F089540E0842F089510926C059E
:101CE000809148058093BB0085EC8093BC00D7CFE2
:101CF000413208F040E2862F66EF74E00E942B0E1E
:101D0000109216058093170508950E94780E089585
:101D10000F93982F522F413208F04BC080916D05E0
:101D20008823E1F782E080936D0500936B058FEFC8
:101D300080936E051092490540934A05442371F043
:101D400020E030E0F901E55BFA4FDB01A20FB31FA1
:101D50008C9180832F5F3F4F2417A0F3109248058A
:101D600080914805990F892B8093480580916C05D7
:101D7000813011F185EE8093BC00552379F4809178
:101D80006E058F3F99F080916E058032F9F0809159
:101D90006E058033E9F084E00F91089580916D0520
:101DA0008230E1F380916E058F3F69F780E00F91FB
:101DB000089581E00F91089510926C058091480577
:101DC0008093BB0085EC8093BC00D7CF82E0E4CF4A
:101DD00083E0E2CF0F93062F8091180569E175E04B
:101DE00040913A0521E00E94880E10923905109228
:101DF0003A0510923B050F910895AC016132D0F481
:101E000080916D05843011F082E008956093930510
:101E1000662371F020E030E0F901EA56FA4FDA016A
:101E2000A20FB31F8C9180832F5F3F4F2617A0F323
:101E300080E0089581E00895CF92DF92EF92FF92C3
:101E40000F931F93CF93DF937C016B018A018091E5
:101E50003B058823F9F04115510591F0C0E0D0E031
:101E6000D701ED91FC91D601AC0FBD1F0190F0811F
:101E7000E02DC7016C9119952196C017D10780F309
:101E8000C801DF91CF911F910F91FF90EF90DF90EC
:101E9000CF900895CB01642F0E94FD0EF1CFDF9308
:101EA000CF930F92CDB7DEB7FC01698380913B05DC
:101EB000882319F180913A058032A0F48091390588
:101EC000E82FF0E0E75EFA4F998190838F5F80936F
:101ED000390580933A0521E030E0C9010F90CF9198
:101EE000DF91089581E090E09383828320E030E0E9
:101EF000C9010F90CF91DF910895CE01019661E065
:101F00000E94FD0E21E030E0C9010F90CF91DF91DA
:101F100008951F920F920FB60F920BB60F921124D5
:101F20002F933F934F935F936F937F938F939F93E1
:101F3000AF93BF93EF93FF938091B90090E0A0E03F
:101F4000B0E0887F9070A070B070FC01893C910572
:101F500090F5EE58FF4FEE0FFF1F0590F491E02D26
:101F6000199484E080936D05109292051092930568
:101F7000E0919405F091950519958091930588233A
:101F800029F481E080939305109296059091920533
:101F9000E92FF0E0EA56FA4F80818093BB009F5F03
:101FA0009093920590919205809193059817D8F49B
:101FB00085EC8093BC00FF91EF91BF91AF919F9111
:101FC0008F917F916F915F914F913F912F910F90E2
:101FD0000BBE0F900FBE0F901F90189580916F054C
:101FE000803208F4ADC085E88093BC00E4CF8091D6
:101FF00049059091BB00E82FF0E0E55BFA4F908334
:102000008F5F809349059091490580914A05981703
:1020100050F7CECF80E380936E0585ED8093BC00B2
:102020008091BC0084FDFCCF10926D05C4CF88E385
:1020300080936E0585EC8093BC0010926D05BBCF3C
:10204000809149059091BB00E82FF0E0E55BFA4FE5
:1020500090838F5F8093490580916B05882309F4F5
:1020600086C085ED8093BC008091BC0084FDFCCFD0
:10207000DBCF83E080936D0510926F0585EC809334
:10208000BC0099CF10926E0585ED8093BC008091C5
:10209000BC0084FDFCCFC8CF809148058093BB0075
:1020A00085EC8093BC0087CF9091490580914A05CB
:1020B000981708F465C080916B05882309F457C010
:1020C00085ED8093BC008091BC0084FDFCCFACCF3B
:1020D00080E280936E0585ED8093BC008091BC000A
:1020E00084FDFCCFA1CF80916F058032C8F185EDD2
:1020F0008093BC008091BC0084FDFCCF10926D05E4
:1021000060916F05E0919005F091910580E795E071
:1021100070E0199510926F0585EC8093BC001092C9
:102120006D0549CF85EC8093BC0010926D0543CFBF
:1021300085ED8093BC008091BC0084FDFCCF74CF02
:1021400080916F059091BB00E82FF0E0E059FA4FC5
:1021500090838F5F80936F0585EC8093BC002BCFBD
:10216000E0916F05F0E0E059FA4F1082C0CF81E0B6
:1021700080936C0584EA8093BC0010926D051BCFA0
:1021800090914905E92FF0E0E55BFA4F808180935B
:10219000BB009F5F9093490585EC8093BC000BCFFB
:1021A00010923F0510923E0588EE93E0A0E0B0E06B
:1021B0008093400590934105A0934205B093430559
:1021C0008BE192E090933D0580933C050895109239
:1021D0006D0581E080936B0510926C0584E161E0F0
:1021E0000E94B90D85E161E00E94B90DE9EBF0E0D4
:1021F00080818E7F808380818D7F808388E480933F
:10220000B80085E48093BC000895109216051092E2
:1022100017051092390510923A050E94E7100895AB
:1022200080EC95E00E9406128EEC95E00E942D1441
:102230008FEC95E00E9429130895AF92BF92CF9240
:10224000DF92EF92FF920F931F9380EC95E00E9434
:102250009C128FEC95E00E944D138DB79EB78E5661
:1022600090400FB6F8949EBF0FBE8DBFADB7BEB7FE
:102270001196EFECF5E08EE601900D928150E1F7BA
:102280008EEC95E0A090C005B090C105C090C2054D
:10229000D090C305E090C405F090C5050091C60537
:1022A0001091C7052091C8053091C9054091CA0514
:1022B0005091CB056091CC057091CD050E945114D1
:1022C0008091D3059091D4059C018DB79EB782591A
:1022D0009F4F0FB6F8949EBF0FBE8DBF37FD4DC008
:1022E0003595279535952795359527952093B605EE
:1022F0003093B7052093B8053093B9052093BA05FC
:102300003093BB052093BC053093BD052093BE05DB
:102310003093BF0582E0B9010E94180C6091B805A6
:102320007091B90583E00E94180C6091B805709116
:10233000B90584E00E94180C6091B8057091B90548
:1023400085E00E94180C2091B8053091B905C901AB
:1023500097FD16C0692F772767FD7A9588E494E08A
:102360004AE050E00E94F0081F910F91FF90EF901B
:10237000DF90CF90BF90AF900895295F3F4FB0CFCF
:1023800081509F4FE7CF8CE395E00E9405118EECC2
:1023900095E00E94A01480EC95E00E94C6128FEC9C
:1023A00095E00E942A1388E494E040E855E260E05A
:1023B00070E00E94910408951F920F920FB60F9241
:1023C0000BB60F9211242F933F934F935F936F930C
:1023D0007F938F939F93AF93BF93EF93FF938FEC74
:1023E00095E00E946B13FF91EF91BF91AF919F9188
:1023F0008F917F916F915F914F913F912F910F90AE
:102400000BBE0F900FBE0F901F9018950895EF927E
:10241000FF921F93CF93DF93162FEA0179018CE38C
:1024200095E068E670E00E94EF0D8CE395E0612F87
:102430000E944F0F019749F02CEE3FEFC901DF9149
:10244000CF911F91FF90EF9008958CE395E0BE012E
:10245000A7010E941C0F8E159F0519F02BEE3FEF70
:10246000EDCF8CE395E061E00E94EA0E282F30E08A
:10247000E5CFDF93CF930F92CDB7DEB74983AE019F
:102480004F5F5F4F21E030E00E9407120F90CF9125
:10249000DF910895CF92DF92EF92FF920F931F93F7
:1024A000CF93DF93162F6A0179018CE395E068E6FC
:1024B00070E00E94EF0D8CE395E0612F0E944F0FBA
:1024C000019761F0C6EFDFEFCE01DF91CF911F9151
:1024D0000F91FF90EF90DF90CF9008958CE395E0FF
:1024E00060E00E94EA0EC82FD0E0209769F78CE3E5
:1024F00095E068E670E0A70121E030E00E94850EDB
:1025000000E010E08CE395E00E94F90D892B31F496
:102510000E151F05C9F2C5EFDFEFD6CF0E151F054B
:10252000BCF78CE395E00E94020EF601E00FF11F6C
:1025300080830F5F1F4FE6CF0F931F938C016BE3D8
:1025400070E0A8012EE030E00E944A12F8013081CC
:10255000218120833183328123812283338334811B
:1025600025812483358336812781268337833085EF
:1025700021852087318732852385228733873485DB
:102580002585248735871F910F910895AF92BF92BB
:10259000CF92DF92EF92FF920F931F93DF93CF932F
:1025A0000F92CDB7DEB77C0165E770E05E0108945D
:1025B000A11CB11CA50121E030E00E944A126C016F
:1025C00008E414E0C8016BEB73E00E948C07C801BB
:1025D000698140E150E00E948608C80160EB73E029
:1025E0000E948C07C801B6014AE050E00E94F00842
:1025F000C7016CE670E0A50121E030E00E944A12BC
:102600006C01C80162EA73E00E948C07C80169810D
:1026100040E150E00E948608C80167E973E00E942B
:102620008C07C801B6014AE050E00E94F008C701DB
:102630006BE670E040E00E9439120F90CF91DF917D
:102640001F910F91FF90EF90DF90CF90BF90AF90D0
:1026500008950895DC011092070110920801EDE63B
:10266000F0E080818F608083E8E6F0E08081846024
:1026700080838CED95E011969C938E9313969C939A
:102680008E93129715969C938E93149788EE93E0F1
:1026900017969C938E9316970895FC018FB7F89424
:1026A0008FBF81899289918380838FB7F8948FBF80
:1026B000848D958D938382838FB7F8948FBF87A184
:1026C00090A5958384838FB7F8948FBF82A993A92F
:1026D0009783868308952F923F925F926F927F92A5
:1026E0008F929F92AF92BF92CF92DF92EF92FF9222
:1026F0000F931F93DF93CF93CDB7DEB72A970FB613
:10270000F894DEBF0FBECDBF5C018091060185014C
:1027100005591F4F1A870987D8011C9118278C93D8
:1027200080916D001823C1F42A960FB6F894DEBF8D
:102730000FBECDBFCF91DF911F910F91FF90EF9012
:10274000DF90CF90BF90AF909F908F907F906F90D1
:102750005F903F902F9008950E948F0B6B017C013A
:10276000612F70E0150140E050E0F1E0AF2EB12C98
:10277000E0E26E2EE1ED7E2EEFEF8E2EEFEF9E2E3D
:102780005524539426C0F10185859685A785B08987
:10279000C186D286E386F48694018301081B190B57
:1027A0002A0B3B0BD901C8018C0D9D1DAE1DBF1D11
:1027B000815E9E42A040B04008F04BC050864F5F03
:1027C0005F4F2BE030E0220E331E4830510509F4F4
:1027D000ABCFC501042E02C0880F991F0A94E2F7FF
:1027E000282F30E0C90186239723892B41F3E985FF
:1027F000FA85808190E028233923232B21F6F101EB
:1028000081859285A385B48597018601081B190BE4
:102810002A0B3B0B0D831E832F833887D1011D9616
:10282000CD92DD92ED92FC925097065B13402040D2
:102830003040065614402040304008F0C0CF80851C
:10284000813009F0BCCF0D811E81128B018B108667
:10285000B6CFD10118961C92B2CF0895EF92FF9295
:102860000F931F93DF93CF93CDB7DEB7E888F98836
:1028700008E414E0C80168EC73E00E948C07C8010A
:10288000B7014AE050E00E94DD08C80167EC73E040
:102890000E94DD07CF91DF911F910F91FF90EF9084
:1028A0000895AF92BF92CF92DF92EF92FF920F9373
:1028B0001F93DF93CF93CDB7DEB72E970FB6F89463
:1028C000DEBF0FBECDBFA982BA82CB82DC82ED8291
:1028D000FE820F83188729873A874B875C876D872D
:1028E0007E872DB73EB72E5630400FB6F8943EBFC8
:1028F0000FBE2DBFADB7BEB71196FE017C962EE67A
:1029000001900D922150E1F70E942E148DB79EB7D1
:1029100082599F4F0FB6F8949EBF0FBE8DBF2E9663
:102920000FB6F894DEBF0FBECDBFCF91DF911F91E0
:102930000F91FF90EF90DF90CF90BF90AF900895F0
:1029400088E494E040E855E260E070E00E94910481
:102950000895629FD001739FF001829FE00DF11DE9
:10296000649FE00DF11D929FF00D839FF00D749F09
:10297000F00D659FF00D9927729FB00DE11DF91FB5
:10298000639FB00DE11DF91FBD01CF011124089512
:10299000A1E21A2EAA1BBB1BFD010DC0AA1FBB1F63
:1029A000EE1FFF1FA217B307E407F50720F0A21BD5
:1029B000B30BE40BF50B661F771F881F991F1A9442
:1029C00069F760957095809590959B01AC01BD016C
:1029D000CF010895EE0FFF1F0590F491E02D19949B
:0429E000F894FFCF99
:1029E400FF00000000890560072005520531057CC1
:1029F40005000000000A07000000004F0F1C0FF93B
:082A04000D020E180E2A0E004F
:00000001FF
